{
  "address": "0xc4619705d9c9Ee07860e0A5247d0f7Cb5980Fade",
  "abi": [
    {
      "inputs": [
        {
          "internalType": "uint256[]",
          "name": "_wreward",
          "type": "uint256[]"
        },
        {
          "internalType": "uint256[]",
          "name": "_oc",
          "type": "uint256[]"
        },
        {
          "internalType": "uint256[]",
          "name": "_minFee",
          "type": "uint256[]"
        },
        {
          "internalType": "uint256[]",
          "name": "_feePercent",
          "type": "uint256[]"
        },
        {
          "internalType": "uint256[5]",
          "name": "durations",
          "type": "uint256[5]"
        }
      ],
      "stateMutability": "nonpayable",
      "type": "constructor"
    },
    {
      "anonymous": false,
      "inputs": [
        {
          "indexed": true,
          "internalType": "address",
          "name": "previousOwner",
          "type": "address"
        },
        {
          "indexed": true,
          "internalType": "address",
          "name": "newOwner",
          "type": "address"
        }
      ],
      "name": "OwnershipTransferred",
      "type": "event"
    },
    {
      "inputs": [],
      "name": "BASE_PRECISION",
      "outputs": [
        {
          "internalType": "uint256",
          "name": "",
          "type": "uint256"
        }
      ],
      "stateMutability": "view",
      "type": "function"
    },
    {
      "inputs": [],
      "name": "durationToFirstUnstake",
      "outputs": [
        {
          "internalType": "uint256",
          "name": "",
          "type": "uint256"
        }
      ],
      "stateMutability": "view",
      "type": "function"
    },
    {
      "inputs": [],
      "name": "durationToUnstake",
      "outputs": [
        {
          "internalType": "uint256",
          "name": "",
          "type": "uint256"
        }
      ],
      "stateMutability": "view",
      "type": "function"
    },
    {
      "inputs": [
        {
          "internalType": "uint256",
          "name": "",
          "type": "uint256"
        }
      ],
      "name": "feePercent",
      "outputs": [
        {
          "internalType": "uint256",
          "name": "",
          "type": "uint256"
        }
      ],
      "stateMutability": "view",
      "type": "function"
    },
    {
      "inputs": [],
      "name": "fulfillExpiryDuration",
      "outputs": [
        {
          "internalType": "uint256",
          "name": "",
          "type": "uint256"
        }
      ],
      "stateMutability": "view",
      "type": "function"
    },
    {
      "inputs": [],
      "name": "lockDuration",
      "outputs": [
        {
          "internalType": "uint256",
          "name": "",
          "type": "uint256"
        }
      ],
      "stateMutability": "view",
      "type": "function"
    },
    {
      "inputs": [
        {
          "internalType": "uint256",
          "name": "",
          "type": "uint256"
        }
      ],
      "name": "minFee",
      "outputs": [
        {
          "internalType": "uint256",
          "name": "",
          "type": "uint256"
        }
      ],
      "stateMutability": "view",
      "type": "function"
    },
    {
      "inputs": [
        {
          "internalType": "uint256",
          "name": "",
          "type": "uint256"
        }
      ],
      "name": "overCollateralPercent",
      "outputs": [
        {
          "internalType": "uint256",
          "name": "",
          "type": "uint256"
        }
      ],
      "stateMutability": "view",
      "type": "function"
    },
    {
      "inputs": [],
      "name": "owner",
      "outputs": [
        {
          "internalType": "address",
          "name": "",
          "type": "address"
        }
      ],
      "stateMutability": "view",
      "type": "function"
    },
    {
      "inputs": [],
      "name": "renounceOwnership",
      "outputs": [],
      "stateMutability": "nonpayable",
      "type": "function"
    },
    {
      "inputs": [
        {
          "internalType": "uint256[]",
          "name": "lst",
          "type": "uint256[]"
        }
      ],
      "name": "setAllWatcherRewardPercent",
      "outputs": [],
      "stateMutability": "nonpayable",
      "type": "function"
    },
    {
      "inputs": [
        {
          "internalType": "uint8",
          "name": "i",
          "type": "uint8"
        },
        {
          "internalType": "uint256",
          "name": "v",
          "type": "uint256"
        }
      ],
      "name": "setWatcherRewardPercent",
      "outputs": [],
      "stateMutability": "nonpayable",
      "type": "function"
    },
    {
      "inputs": [],
      "name": "swapExpiryDuration",
      "outputs": [
        {
          "internalType": "uint256",
          "name": "",
          "type": "uint256"
        }
      ],
      "stateMutability": "view",
      "type": "function"
    },
    {
      "inputs": [
        {
          "internalType": "address",
          "name": "newOwner",
          "type": "address"
        }
      ],
      "name": "transferOwnership",
      "outputs": [],
      "stateMutability": "nonpayable",
      "type": "function"
    },
    {
      "inputs": [
        {
          "internalType": "uint256",
          "name": "",
          "type": "uint256"
        }
      ],
      "name": "watcherRewardPercent",
      "outputs": [
        {
          "internalType": "uint256",
          "name": "",
          "type": "uint256"
        }
      ],
      "stateMutability": "view",
      "type": "function"
    }
  ],
  "transactionHash": "0x2c6ee5f461040351c2ee3a6c69376b2971d1999eacfd6f8b5c6f830f6acd5dba",
  "args": [
    [
      0,
      5000,
      1000
    ],
    [
      0,
      1000,
      20000
    ],
    [
      "1000000",
      "1000000",
      "1000000"
    ],
    [
      500,
      600,
      700
    ],
    [
      25,
      20,
      10,
      5,
      5
    ]
  ],
  "numDeployments": 1,
  "solcInputHash": "a6695e98dbe6f0c310b88e0e5dba895d",
  "bytecode": "0x60806040523480156200001157600080fd5b50604051620009a5380380620009a5833981016040819052620000349162000262565b6200003f33620000c6565b84516200005490600190602088019062000116565b5083516200006a90600290602087019062000116565b5082516200008090600390602086019062000116565b5081516200009690600490602085019062000116565b50805160055560208101516006556040810151600755606081015160085560800151600955506200037292505050565b600080546001600160a01b038381166001600160a01b0319831681178455604051919092169283917f8be0079c531659141344cd1fd0a4f28419497f9722a3daafe3b4186f6b6457e09190a35050565b82805482825590600052602060002090810192821562000154579160200282015b828111156200015457825182559160200191906001019062000137565b506200016292915062000166565b5090565b5b8082111562000162576000815560010162000167565b634e487b7160e01b600052604160045260246000fd5b60405160a081016001600160401b0381118282101715620001b857620001b86200017d565b60405290565b600082601f830112620001d057600080fd5b815160206001600160401b0380831115620001ef57620001ef6200017d565b8260051b604051601f19603f830116810181811084821117156200021757620002176200017d565b6040529384528581018301938381019250878511156200023657600080fd5b83870191505b8482101562000257578151835291830191908301906200023c565b979650505050505050565b60008060008060006101208087890312156200027d57600080fd5b86516001600160401b03808211156200029557600080fd5b620002a38a838b01620001be565b9750602091508189015181811115620002bb57600080fd5b620002c98b828c01620001be565b975050604089015181811115620002df57600080fd5b620002ed8b828c01620001be565b9650506060890151818111156200030357600080fd5b620003118b828c01620001be565b9550505088609f8901126200032557600080fd5b6200032f62000193565b91880191808a8411156200034257600080fd5b60808a015b8481101562000360578051835291830191830162000347565b50809450505050509295509295909350565b61062380620003826000396000f3fe608060405234801561001057600080fd5b50600436106100f55760003560e01c80638995d5ae11610097578063a237bbcf11610066578063a237bbcf146101ab578063d3b693e7146101b4578063f2fde38b146101c7578063fb96a26c146101da57600080fd5b80638995d5ae1461016b5780638aaed1021461017e5780638da5cb5b1461018757806397a7ce37146101a257600080fd5b80634220c467116100d35780634220c46714610134578063715018a61461014757806372cacb701461014f57806385c628561461015857600080fd5b806304554443146100fa57806317975938146101165780633dfe4c391461011f575b600080fd5b61010360075481565b6040519081526020015b60405180910390f35b61010360055481565b61013261012d366004610488565b6101ed565b005b6101036101423660046104ba565b610281565b6101326102a2565b61010361271081565b6101036101663660046104ba565b6102b6565b6101036101793660046104ba565b6102c6565b61010360085481565b6000546040516001600160a01b03909116815260200161010d565b61010360095481565b61010360065481565b6101326101c23660046104e9565b6102d6565b6101326101d53660046105a7565b6102f5565b6101036101e83660046104ba565b61036e565b6101f561037e565b60015460ff8316111561025a5760405162461bcd60e51b815260206004820152602260248201527f7761746368657252657761726450657263656e7420696e76616c696420696e646044820152610caf60f31b60648201526084015b60405180910390fd5b8060018360ff1681548110610271576102716105d7565b6000918252602090912001555050565b6002818154811061029157600080fd5b600091825260209091200154905081565b6102aa61037e565b6102b460006103d8565b565b6004818154811061029157600080fd5b6001818154811061029157600080fd5b6102de61037e565b80516102f1906001906020840190610428565b5050565b6102fd61037e565b6001600160a01b0381166103625760405162461bcd60e51b815260206004820152602660248201527f4f776e61626c653a206e6577206f776e657220697320746865207a65726f206160448201526564647265737360d01b6064820152608401610251565b61036b816103d8565b50565b6003818154811061029157600080fd5b6000546001600160a01b031633146102b45760405162461bcd60e51b815260206004820181905260248201527f4f776e61626c653a2063616c6c6572206973206e6f7420746865206f776e65726044820152606401610251565b600080546001600160a01b038381166001600160a01b0319831681178455604051919092169283917f8be0079c531659141344cd1fd0a4f28419497f9722a3daafe3b4186f6b6457e09190a35050565b828054828255906000526020600020908101928215610463579160200282015b82811115610463578251825591602001919060010190610448565b5061046f929150610473565b5090565b5b8082111561046f5760008155600101610474565b6000806040838503121561049b57600080fd5b823560ff811681146104ac57600080fd5b946020939093013593505050565b6000602082840312156104cc57600080fd5b5035919050565b634e487b7160e01b600052604160045260246000fd5b600060208083850312156104fc57600080fd5b823567ffffffffffffffff8082111561051457600080fd5b818501915085601f83011261052857600080fd5b81358181111561053a5761053a6104d3565b8060051b604051601f19603f8301168101818110858211171561055f5761055f6104d3565b60405291825284820192508381018501918883111561057d57600080fd5b938501935b8285101561059b57843584529385019392850192610582565b98975050505050505050565b6000602082840312156105b957600080fd5b81356001600160a01b03811681146105d057600080fd5b9392505050565b634e487b7160e01b600052603260045260246000fdfea2646970667358221220fb9e6f5f1d843f2c73e56c14e9d66fc3b74d5a8d6e204b76622facfb9bfe312d64736f6c63430008110033",
  "devdoc": {
    "kind": "dev",
    "methods": {
      "owner()": {
        "details": "Returns the address of the current owner."
      },
      "renounceOwnership()": {
        "details": "Leaves the contract without owner. It will not be possible to call `onlyOwner` functions anymore. Can only be called by the current owner. NOTE: Renouncing ownership will leave the contract without an owner, thereby removing any functionality that is only available to the owner."
      },
      "transferOwnership(address)": {
        "details": "Transfers ownership of the contract to a new account (`newOwner`). Can only be called by the current owner."
      }
    },
    "version": 1
  },
  "userdoc": {
    "kind": "user",
    "methods": {},
    "version": 1
  },
  "storageLayout": {
    "storage": [
      {
        "astId": 7,
        "contract": "contracts/Parameters.sol:Parameters",
        "label": "_owner",
        "offset": 0,
        "slot": "0",
        "type": "t_address"
      },
      {
        "astId": 3937,
        "contract": "contracts/Parameters.sol:Parameters",
        "label": "watcherRewardPercent",
        "offset": 0,
        "slot": "1",
        "type": "t_array(t_uint256)dyn_storage"
      },
      {
        "astId": 3940,
        "contract": "contracts/Parameters.sol:Parameters",
        "label": "overCollateralPercent",
        "offset": 0,
        "slot": "2",
        "type": "t_array(t_uint256)dyn_storage"
      },
      {
        "astId": 3943,
        "contract": "contracts/Parameters.sol:Parameters",
        "label": "minFee",
        "offset": 0,
        "slot": "3",
        "type": "t_array(t_uint256)dyn_storage"
      },
      {
        "astId": 3946,
        "contract": "contracts/Parameters.sol:Parameters",
        "label": "feePercent",
        "offset": 0,
        "slot": "4",
        "type": "t_array(t_uint256)dyn_storage"
      },
      {
        "astId": 3948,
        "contract": "contracts/Parameters.sol:Parameters",
        "label": "durationToUnstake",
        "offset": 0,
        "slot": "5",
        "type": "t_uint256"
      },
      {
        "astId": 3950,
        "contract": "contracts/Parameters.sol:Parameters",
        "label": "durationToFirstUnstake",
        "offset": 0,
        "slot": "6",
        "type": "t_uint256"
      },
      {
        "astId": 3952,
        "contract": "contracts/Parameters.sol:Parameters",
        "label": "lockDuration",
        "offset": 0,
        "slot": "7",
        "type": "t_uint256"
      },
      {
        "astId": 3954,
        "contract": "contracts/Parameters.sol:Parameters",
        "label": "swapExpiryDuration",
        "offset": 0,
        "slot": "8",
        "type": "t_uint256"
      },
      {
        "astId": 3956,
        "contract": "contracts/Parameters.sol:Parameters",
        "label": "fulfillExpiryDuration",
        "offset": 0,
        "slot": "9",
        "type": "t_uint256"
      }
    ],
    "types": {
      "t_address": {
        "encoding": "inplace",
        "label": "address",
        "numberOfBytes": "20"
      },
      "t_array(t_uint256)dyn_storage": {
        "base": "t_uint256",
        "encoding": "dynamic_array",
        "label": "uint256[]",
        "numberOfBytes": "32"
      },
      "t_uint256": {
        "encoding": "inplace",
        "label": "uint256",
        "numberOfBytes": "32"
      }
    }
  }
}